:100000000C9461000C9473000C9473000C947300B6
:100010000C9473000C9473000C9473000C94730094
:100020000C9473000C9473000C9473000C94730084
:100030000C9473000C9473000C9473000C94730074
:100040000C9430010C9473000C9473000C947300A6
:100050000C9473000C9473000C9473000C94730054
:100060000C9473000C94730000000000250028001D
:100070002B0000000000240027002A0000000000E0
:1000800023002600290004040404040404040202DA
:100090000202020203030303030301020408102007
:1000A0004080010204081020010204081020000012
:1000B0000008000201000003040700000000000027
:1000C000000011241FBECFEFD8E0DEBFCDBF21E07E
:1000D000A0E0B1E001C01D92A930B207E1F70E9493
:1000E0007A010C9413020C940000482F413029F03F
:1000F000423079F04330A1F02FC02FEF3FEF4FEFA8
:100100005F9A5F982A95E1F73A95D1F74A95C1F73A
:10011000089554E15F9A0FD05F985A95D9F70895E2
:100120004FEF52E35F9A11D05F980FD04A95D1F705
:100130005A95C1F708952FEF3FEF44E12A95F1F763
:100140003A95E1F74A95D1F708952AE03AE02A95E1
:10015000F1F73A95E1F708950895833081F028F496
:10016000813099F08230A9F008958730A9F0883065
:10017000C9F08430B1F4809180008F7D03C08091FC
:1001800080008F7780938000089584B58F7784BD39
:10019000089584B58F7DFBCF8091B0008F778093D9
:1001A000B00008958091B0008F7DF9CFCF93DF9399
:1001B000282F30E0F901E255FF4F8491F901E6560E
:1001C000FF4FD491F901EA57FF4FC491CC23A1F01E
:1001D00081110E94AD00EC2FF0E0EE0FFF1FE458FC
:1001E000FF4FA591B491EC91ED2381E090E009F4EB
:1001F00080E0DF91CF91089580E090E0FACFCF9337
:10020000DF9390E0FC01E656FF4F24918A579F4F01
:10021000FC0184918823D1F090E0880F991FFC01A4
:10022000EE58FF4FA591B491FC01E859FF4FC591DD
:10023000D49161110EC09FB7F8948C91E22FE09594
:100240008E238C932881E223E8839FBFDF91CF9197
:1002500008958FB7F894EC91E22BEC938FBFF6CF13
:100260001F920F920FB60F9211242F933F938F93EB
:100270009F93AF93BF938091050190910601A09148
:100280000701B09108013091040123E0230F2D37BD
:1002900058F50196A11DB11D20930401809305011D
:1002A00090930601A0930701B0930801809100018B
:1002B00090910101A0910201B09103010196A11D4D
:1002C000B11D8093000190930101A0930201B093AE
:1002D0000301BF91AF919F918F913F912F910F900B
:1002E0000FBE0F901F90189526E8230F0296A11DB0
:1002F000B11DD2CF789484B5826084BD84B581600D
:1003000084BD85B5826085BD85B5816085BD8091E0
:100310006E00816080936E00109281008091810058
:100320008260809381008091810081608093810050
:10033000809180008160809380008091B100846012
:100340008093B1008091B00081608093B000809173
:100350007A00846080937A0080917A008260809332
:100360007A0080917A00816080937A0080917A008F
:10037000806880937A001092C10061E087E00E945B
:10038000FF0060E084E00E94FF0060E085E00E94E2
:10039000FF0060E086E00E94FF0005EB10E091EABC
:1003A000E92E90E0F92E2DE8822E20E0922EC0E07A
:1003B000D0E084E00E94D6005C0185E00E94D60077
:1003C0006C0186E00E94D600AA94AB2841F481E03B
:1003D0000E947500209769F30E940000EACFCA943A
:1003E000CD2811F482E0F4CF019711F483E0F0CF2F
:1003F000F8018491F701C490F401D490DD2051F309
:1004000081110E94AD00ED2DF0E0EE0FFF1FE859C5
:10041000FF4FA591B4918FB7F8949C91C094C922D5
:0A042000CC928FBFD7CFF894FFCF26
:00000001FF
